:100000000C9463000C948B000C948B000C948B006C
:100010000C948B000C948B000C948B000C948B0034
:100020000C948B000C948B000C948B000C948B0024
:100030000C948B000C948B000C948B000C948B0014
:100040000C9411030C948B000C948B000C948B007B
:100050000C948B000C948B000C948B000C948B00F4
:100060000C948B000C948B000000000024002700EF
:100070002A000000000023002600290000000000E4
:10008000250028002B0004040404040404040202D4
:100090000202020203030303030301020408102007
:1000A0004080010204081020010204081020000012
:1000B0000008000201000003040700000000000027
:1000C00000009806F70611241FBECFEFD8E0DEBF70
:1000D000CDBF11E0A0E0B1E0E2ECF2E102C005909A
:1000E0000D92AA30B107D9F721E0AAE0B1E001C032
:1000F0001D92A934B207E1F710E0C2E6D0E004C0D7
:100100002197FE010E942208C136D107C9F70E943B
:100110005B030C9454090C9400004F925F926F9211
:100120007F928F929F92AF92BF92FF922091310166
:10013000309132018217930708F043C02B016624E7
:100140007724852E962EA72EBB24B82DA42F209180
:100150003701F42C222391F0E22FF0E0E49DD0014E
:10016000E59DB00DF49DB00D1124FB2E289D40019E
:100170001124B92D249F90011124A32FE0913D015A
:10018000209138013091390150913A01E51323C093
:10019000FC01EE0FFF1F8E0F9F1F820F931FE09138
:1001A0003A01E80FF92FF11DF082E0913B01E80FD1
:1001B000F92FF11DB08320913C01820F911DFC01AC
:1001C000A083FF90BF90AF909F908F907F906F9093
:1001D0005F904F900895880F991F880F991F820F85
:1001E000931FE80FF92FF11D1082D9CF833081F0D2
:1001F00028F4813099F08230A9F008958730A9F071
:100200008830C9F08430B1F4809180008F7D03C0C4
:10021000809180008F7780938000089584B58F77D8
:1002200084BD089584B58F7DFBCF8091B0008F771A
:100230008093B00008958091B0008F7DF9CFCF9367
:10024000DF93282F30E0F901E255FF4F8491F90147
:10025000E656FF4FD491F901EA57FF4FC491CC23E2
:1002600091F081110E94F600EC2FF0E0EE0FFF1FDD
:10027000E458FF4FA591B4918FB7F894EC91D095C5
:10028000DE23DC938FBFDF91CF910895CF93DF936F
:10029000282F30E0F901E255FF4F8491F901E6562D
:1002A000FF4FD491F901EA57FF4FC491CC23A1F03D
:1002B00081110E94F600EC2FF0E0EE0FFF1FEE58C8
:1002C000FF4FA591B491EC91ED2381E090E009F40A
:1002D00080E0DF91CF91089580E090E0FACFCF9356
:1002E000DF9390E0FC01E656FF4F24918A579F4F21
:1002F000FC0184918823C9F090E0880F991FFC01CC
:10030000E859FF4FA591B491FC01E458FF4FC59106
:10031000D49161110DC09FB7F8948C9120958223E0
:100320008C938881282328839FBFDF91CF910895E4
:10033000623051F49FB7F8943C91822F80958323CB
:100340008C93E8812E2BEFCF8FB7F894EC912E2B66
:100350002C938FBFEACF3FB7F89480910F01909113
:100360001001A0911101B091120126B5A89B05C002
:100370002F3F19F00196A11DB11D3FBFBA2FA92F24
:10038000982F8827BC01CD01620F711D811D911D21
:1003900042E0660F771F881F991F4A95D1F708958D
:1003A000CF92DF92EF92FF920F931F93CF93DF9341
:1003B000CDB7DEB729970FB6F894DEBF0FBECDBF1D
:1003C0008091380190913901892B09F480C0C09047
:1003D0003E01D0903F01E0904001F09041010E9429
:1003E000AB016C157D058E059F0550F40E94AB0195
:1003F00060933E0170933F018093400190934101CF
:100400000E94AB0100913E0110913F0120914001FB
:1004100030914101601B710B820B930B6C32714068
:1004200081059105A0F2F8948091330190913401F7
:100430009A838983E0913801F0913901DF011196A7
:100440008081898790912F01E0914201F0914301D1
:1004500080914401992309F449C09081982B988791
:100460009081809589238F838F818C8388E08B8313
:1004700058856F8149853B812C8189819A81508380
:1004800047FD252F3A952083262F39F0441F00C0C1
:1004900000006083000000C0F2CF38E04D9160831F
:1004A0000000019761F7F0934301E093420149870F
:1004B0003B832C839A83898378940E94AB01609359
:1004C0003E0170933F018093400190934101299632
:1004D0000FB6F894DEBF0FBECDBFDF91CF911F9155
:1004E0000F91FF90EF90DF90CF9008959081982B1F
:1004F00098879081809589238F838F818E8388E070
:100500008D8358856F8149853D812E8189819A81AE
:10051000508347FD252F00C000C0208300C000C0CD
:1005200000C000C000C060830000262F3A9541F053
:10053000441F000000C000C000C000C000C0E8CFE1
:1005400038E04D9100C0608300C0019709F7F09337
:100550004301E093420149873D832E83ABCF8F92C5
:100560009F92AF92BF92CF92DF92EF92FF924B0198
:100570005C010E94AB016B017C010E94AB016C1914
:100580007D098E099F09683E734081059105A8F396
:1005900021E0821A9108A108B10888EEC80E83E014
:1005A000D81EE11CF11C81149104A104B10429F7A7
:1005B000FF90EF90DF90CF90BF90AF909F908F9083
:1005C0000895EFE2F1E04481558170E060E08185BB
:1005D00092850C944D090F931F93CF93DF930E9444
:1005E000E10203E111E0D0E0C0E0F80181918F0168
:1005F00040E05FEF60E070E0813031F0823039F44C
:1006000040E050E06FEF70E0CE010E948D00219637
:10061000CB31D10551F7DF91CF911F910F910C9400
:10062000D0011F920F920FB60F9211242F933F9378
:100630008F939F93AF93BF9380910B0190910C0187
:10064000A0910D01B0910E0130910A0123E0230F1A
:100650002D3758F50196A11DB11D20930A018093F5
:100660000B0190930C01A0930D01B0930E018091AA
:100670000F0190911001A0911101B091120101960A
:10068000A11DB11D80930F0190931001A093110142
:10069000B0931201BF91AF919F918F913F912F9194
:1006A0000F900FBE0F901F90189526E8230F02960B
:1006B000A11DB11DD2CFCF93DF9300D000D000D0C9
:1006C000CDB7DEB7789484B5826084BD84B581608F
:1006D00084BD85B5826085BD85B5816085BD80910D
:1006E0006E00816080936E00109281008091810085
:1006F000826080938100809181008160809381007D
:10070000809180008160809380008091B10084603E
:100710008093B1008091B00081608093B00080919F
:100720007A00846080937A0080917A00826080935E
:100730007A0080917A00816080937A0080917A00BB
:10074000806880937A001092C10062E082E00E948B
:100750006F0162E084E00E946F0162E085E00E9428
:100760006F0162E083E00E946F01809135019091FA
:10077000360197FD07C061E00E946F01809135014D
:100780000E941F0181E0809330010E94D00160919E
:100790003701693229F120913801309139016150D6
:1007A000C9F070E08FEF98E20E940E08F9014091C5
:1007B000330150913401CF01821B930B84179507AD
:1007C00060F44081469FC001479F900D11249083A3
:1007D0003196EDCF70E060E0E9CF89E28093370198
:1007E0008EE291E003E111E0D8011D928D018A179C
:1007F0009B07D1F72224239423E131E08AE097EF8D
:10080000980F69EF680FD901A901FA017191AF0141
:100810007983772391F0E62FF0E0ED5EFE4F708153
:10082000E981E7130AC0E3E0E60FF0E0ED5EFE4F7A
:100830007081F981F71709F4D9C07C917983772306
:1008400091F0E92FF0E0ED5EFE4F7081E981E71352
:100850000AC0E1E0E90FF0E0ED5EFE4F7081F98142
:10086000F71709F4C3C09D5F13966F5F8913CDCF4F
:10087000875F275F3F4F853211F6E3E1F1E020818A
:100880002983222339F08481281304C08085281706
:1008900009F4ACC032813983332339F084813813B1
:1008A00004C08681381709F4A1C03996E017F10712
:1008B00031F790E080E0DC01AD5EBE4F20E039E032
:1008C000380F42E1480F5C915983552391F0E32F93
:1008D000E20FF0E0ED5EFE4F50816981651309C0C3
:1008E000E42FE20FF0E0ED5EFE4F5081651709F452
:1008F0007DC013962D5F293031F701968330910525
:10090000D1F6A3E1B1E0FD0171917983772339F04C
:100910008385781304C08789781709F467C08189B3
:100920008983882341F083859981981304C0858148
:10093000981709F45BC02C912983222359F01A9649
:100940008C911A97281306C054968C9154972817A7
:1009500009F44CC012963C9112973983332351F01D
:100960001A968C911A97381305C052968C9152970B
:100970003817E1F1139646E151E04E175F0721F673
:10098000509113015983552341F080912001581350
:1009900004C080912D01581749F1609125016983A8
:1009A000662341F080912001681304C080911B01EF
:1009B0006817E1F0709115017983772341F08091F8
:1009C0002001781304C080912B01781779F0809171
:1009D00019018983882309F4F5C080912001998148
:1009E0009813F0C0809127019813ECC00E94E10297
:1009F0000E94D001F98110E00FEFF13011F41FEFE8
:100A000000E01E821D82C12CD12C7601D3940E945D
:100A100053074B015C010E9453072B013C010E94CC
:100A20005307A70196010E94AB07CB0177276627E2
:100A30009B01AC0122273327552729833A834B8317
:100A40005C83C301B201A70196010E94AB07442455
:100A5000562E672E782E6624772449815A816B8121
:100A60007C81442A552A662A772AC501B401A70148
:100A700096010E94AB07D301C201862BAC01BD01D8
:100A80008D819E810E948D00AD81BE811196BE83B5
:100A9000AD83199709F0BBCF0E94D00168EE73E0D7
:100AA00080E090E00E94AF020E94E1020E94D0012B
:100AB000C12CD12C7601D3940E9453074B015C01C9
:100AC0000E9453072B013C010E945307A701960186
:100AD0000E94AB07CB01772766279B01AC01222739
:100AE0003327552729833A834B835C83C301B201A3
:100AF000A70196010E94AB074424562E672E782E3C
:100B00006624772449815A816B817C81442A552A45
:100B1000662A772AC501B401A70196010E94AB0796
:100B2000D301C201862BAC01BD018D819E810E9443
:100B30008D00AD81BE811196BE83AD83529709F0C1
:100B4000BBCF0E94D00168EE73E080E090E00E948D
:100B5000AF02C02ED12CF12CE12C7601DD24CC2467
:100B6000012F10E030E020E0322F212F102F00273E
:100B7000C02AD12AE22AF32A0E94E1020E94D0016F
:100B800068EE73E080E090E00E94AF02E2E1F0E006
:100B9000FA83E983B701A60189819A810E948D00B9
:100BA00029813A812F5F3F4F3A8329832B313105C9
:100BB00089F70E94D00168EE73E080E090E00E9427
:100BC000AF02DACF80912E0181114BC08FEF90E000
:100BD000C92ED12CF12CE12C7601DD24CC2490E01F
:100BE000B0E0A0E0BA2FA92F982F8827C82AD92AC9
:100BF000EA2AFB2A2601370134E6432A812C312CCC
:100C0000912C0E94E1020E94EB02492D440F490DF4
:100C100059E0359E400D1124480D642F062E000C1E
:100C2000770B7A836983B301A20189819A810E943B
:100C30008D000E94D00184E00E944601892BA1F41E
:100C40006AE070E080E090E00E94AF0284E00E94E1
:100C50004601892BD9F38394B3E08B12D2CF812C38
:100C6000D0CF80E09FEFB4CF85E00E944601892B72
:100C700081F46AE070E080E090E00E94AF0285E0DD
:100C80000E944601892BD9F3939423E09212B9CFA5
:100C9000B7CF83E00E944601892B89F46AE070E0B7
:100CA00080E090E00E94AF0283E00E944601892B21
:100CB000D9F3339433E03312A4CF312CA2CF82E0A6
:100CC0000E944601892B09F0B6CF6AE070E080E00F
:100CD00090E00E94AF0282E00E944601892BD9F386
:100CE00049815A814D5E5E4F5A01DA018C91811122
:100CF00088CFB701A60189819A810E948D007091E9
:100D00002E017983772389F082E0D5018C930E94AC
:100D1000EB02E981E225E0932E0120E030E0232B75
:100D200009F46ACD0E94000067CDF5012082EFCF63
:100D3000109230011092370110923E0110923F0143
:100D4000109240011092410181E080933D01809317
:100D50003A0110923B0192E090933C0180932F0165
:100D600081E590E090933401809333010E9428083C
:100D70009093390180933801009781F121E5FC01BE
:100D800011922A95E9F78BE190E0909332018093DC
:100D9000310186E090E09093360180933501809197
:100DA0003001882339F061E086E00E946F0186E01F
:100DB0000E941F01ECE8F0E0E491F0E0EE0FFF1F6D
:100DC000E458FF4F859194919093430180934201A1
:100DD000E0EAF0E0E491E0934401089510923401D8
:100DE000109233011092320110923101D2CF8091D2
:100DF0003801909139010E94C40880913501909189
:100E0000360197FD03C060E00C946F0108958F9246
:100E10009F92AF92BF92CF92DF92EF92FF92CF93C9
:100E2000DF93EC01688179818A819B81611571056D
:100E30008105910521F464E279ED8BE597E02DE1E0
:100E400033EF41E050E00E94AB0749015A019B019A
:100E5000AC01A7EAB1E40E94CA076B017C01ACEEC9
:100E6000B4EFA50194010E94D807C60ED71EE81E54
:100E7000F91EF7FE06C081E0C81AD108E10880E833
:100E8000F80AC882D982EA82FB82C701B6019F773D
:100E9000DF91CF91FF90EF90DF90CF90BF90AF9018
:100EA0009F908F9008958F929F92AF92BF92CF9212
:100EB000DF92EF92FF9260910001709101018091A9
:100EC000020190910301611571058105910521F4DD
:100ED00064E279ED8BE597E02DE133EF41E050E0FE
:100EE0000E94AB0749015A019B01AC01A7EAB1E49A
:100EF0000E94CA076B017C01ACEEB4EFA50194011E
:100F00000E94D807C60ED71EE81EF91EF7FE06C0BF
:100F100081E0C81AD108E10880E8F80AC09200010F
:100F2000D0920101E0920201F0920301C701B601E3
:100F30009F77FF90EF90DF90CF90BF90AF909F9002
:100F40008F900895609300017093010180930201D6
:100F5000909303010895052E97FB1EF400940E94C0
:100F6000C20757FD07D00E94DD0707FC03D04EF4EF
:100F70000C94C20750954095309521953F4F4F4FA7
:100F80005F4F089590958095709561957F4F8F4F35
:100F90009F4F08950E94FF07A59F900DB49F900D4D
:100FA000A49F800D911D11240895B7FF0C94CA07CA
:100FB0000E94CA07821B930B0895A1E21A2EAA1B56
:100FC000BB1BFD010DC0AA1FBB1FEE1FFF1FA217F9
:100FD000B307E407F50720F0A21BB30BE40BF50BF6
:100FE000661F771F881F991F1A9469F7609570957F
:100FF000809590959B01AC01BD01CF010895A29F02
:10100000B001B39FC001A39F700D811D1124911DDC
:10101000B29F700D811D1124911D0895AA1BBB1B49
:1010200051E107C0AA1FBB1FA617B70710F0A61BE8
:10103000B70B881F991F5A95A9F780959095BC0109
:10104000CD010895EE0FFF1F0590F491E02D099456
:101050000F931F93CF93DF938230910510F482E0BA
:1010600090E0E0914701F091480130E020E0B0E0ED
:10107000A0E0309799F42115310509F44AC0281BE6
:10108000390B24303105D8F58A819B8161157105B2
:1010900089F1FB0193838283FE0111C0408151815C
:1010A0000281138148175907E0F04817590799F44E
:1010B000109761F012960C93129713961C93329628
:1010C000CF01DF91CF911F910F91089500934701B8
:1010D00010934801F4CF2115310551F04217530701
:1010E00038F0A901DB019A01BD01DF01F801C1CF90
:1010F000EF01F9CF9093480180934701CDCFFE01D6
:10110000E20FF31F81939193225031093983288391
:10111000D7CF2091450130914601232B41F42091F6
:10112000060130910701309346012093450120913B
:101130000401309105012115310541F42DB73EB769
:101140004091080150910901241B350BE0914501A4
:10115000F0914601E217F307A0F42E1B3F0B28176E
:10116000390778F0AC014E5F5F4F2417350748F020
:101170004E0F5F1F50934601409345018193919319
:101180009FCFF0E0E0E09CCFCF93DF930097E9F0B2
:10119000FC01329713821282A0914701B09148015D
:1011A000ED0130E020E01097A1F420813181820F21
:1011B000931F20914501309146012817390709F006
:1011C00061C0F0934601E0934501DF91CF9108950E
:1011D000EA01CE17DF07E8F54A815B819E014115E0
:1011E0005105B1F7E901FB83EA8349915991C40F95
:1011F000D51FEC17FD0761F4808191810296840F61
:10120000951FE90199838883828193819B838A83D7
:10121000F0E0E0E012968D919C9113970097B9F55C
:101220002D913C911197CD010296820F931F209131
:101230004501309146012817390739F6309751F5A5
:101240001092480110924701B0934601A0934501C6
:10125000BCCFD383C28340815181840F951FC817AF
:10126000D90761F44E5F5F4F88819981480F591FFC
:10127000518340838A819B81938382832115310529
:1012800009F0B0CFF0934801E09347019ECFFD01F4
:10129000DC01C0CF13821282D7CFDC0101C06D9375
:1012A00041505040E0F7089510E0C2E6D0E004C09D
:1012B000FE010E9422082196C336D107C9F7F8948F
:0212C000FFCF5E
:0A12C2000100000000004901800057
:00000001FF
